:100C4000024C000C02540000025600000210000189
:100C50001C12FFFFFFFFFFFFFFFFFFFFFFFFFFFF74
:100C6000FFFFFFFFFFFFFFFFFFFFFFFFFFFF1C2E48
:100C7000FFFFFFFFFFFFFFFFFFFFFFFFFFFFFFFF84
:100C8000FFFFFFFFFFFFFFFFFFFFFFFF044E00031B
:020C900000075B
:10048100120D7B120003120BE9E54D640A454C6025
:100491000BE55CB40A06754C00754D0AE54D640C1C
:1004A100454C600BE55CB40C06754C00754D0CE5D4
:1004B1004D640F454C600BE55CB40F06754C00753F
:1004C1004D0FE54D6407454C600BE55CB4070675BF
:1004D1004C00754D07AD57AC56AF55AE54120B8F4E
:1004E100AD0FAC0EAF0DAE0C120B8F120D08E51057
:1004F1007097E51114B40E00508F90050975F00343
:10050100A4C58325F0C583730205330205410205A5
:100511007B0205B50205EF02062902066302069D6C
:100521000206D702071102074B0207850207BF0225
:1005310007F9AD2FAC2EAF13AE12120B8F02048A46
:10054100E4F552F553C3E5539402E5526480948077
:10055100400302048AAD53ED25E02412F8E6FE08BB
:10056100E6FFED25E0242EF8E6FC08E6FD120B8FF0
:100571000553E55370CF055280CBE4F552F553C3D3
:10058100E5539403E55264809480400302048AADEC
:1005910053ED25E02412F8E6FE08E6FFED25E02400
:1005A1002EF8E6FC08E6FD120B8F0553E55370CFDC
:1005B100055280CBE4F552F553C3E5539405E5525A
:1005C10064809480400302048AAD53ED25E0241237
:1005D100F8E6FE08E6FFED25E0242EF8E6FC08E645
:1005E100FD120B8F0553E55370CF055280CBE4F517
:1005F10052F553C3E5539406E55264809480400359
:1006010002048AAD53ED25E02412F8E6FE08E6FF68
:10061100ED25E0242EF8E6FC08E6FD120B8F0553CC
:10062100E55370CF055280CBE4F552F553C3E55342
:100631009407E55264809480400302048AAD53ED2F
:1006410025E02412F8E6FE08E6FFED25E0242EF869
:10065100E6FC08E6FD120B8F0553E55370CF0552FA
:1006610080CBE4F552F553C3E5539408E552648019
:100671009480400302048AAD53ED25E02412F8E68C
:10068100FE08E6FFED25E0242EF8E6FC08E6FD1263
:100691000B8F0553E55370CF055280CBE4F552F52E
:1006A10053C3E5539409E5526480948040030204E6
:1006B1008AAD53ED25E02412F8E6FE08E6FFED25AC
:1006C100E0242EF8E6FC08E6FD120B8F0553E553F6
:1006D10070CF055280CBE4F552F553C3E553940A2C
:1006E100E55264809480400302048AAD53ED25E015
:1006F1002412F8E6FE08E6FFED25E0242EF8E6FCDC
:1007010008E6FD120B8F0553E55370CF055280CBE0
:10071100E4F552F553C3E553940BE552648094809C
:10072100400302048AAD53ED25E02412F8E6FE08E9
:10073100E6FFED25E0242EF8E6FC08E6FD120B8F1E
:100741000553E55370CF055280CBE4F552F553C301
:10075100E553940CE55264809480400302048AAD11
:1007610053ED25E02412F8E6FE08E6FFED25E0242E
:100771002EF8E6FC08E6FD120B8F0553E55370CF0A
:10078100055280CBE4F552F553C3E553940DE55280
:1007910064809480400302048AAD53ED25E0241265
:1007A100F8E6FE08E6FFED25E0242EF8E6FC08E673
:1007B100FD120B8F0553E55370CF055280CBE4F545
:1007C10052F553C3E553940EE5526480948040037F
:1007D10002048AAD53ED25E02412F8E6FE08E6FF97
:1007E100ED25E0242EF8E6FC08E6FD120B8F0553FB
:1007F100E55370CF055280CBE4F552F553C3E55371
:10080100940FE55264809480400302048AAD53ED55
:1008110025E02412F8E6FE08E6FFED25E0242EF897
:10082100E6FC08E6FD120B8F0553E55370CF055228
:0208310080CB7A
:100BE900AE4EAF4F7C007D0A120A048C0C8D0DC3EA
:100BF900ED9408EC648094804006750C00750D0531
:100C0900AE50AF517C007D0A120A048C0E8D0FC3C1
:100C1900ED9408EC648094804006750E00750F070A
:100C29007403254FF54FE4354EF54E74072551F5FC
:070C390051E43550F5502293
:100D0800E555B50D26E554B50C21E557B50F1CE59D
:100D180056B50E17750C00750D08750E00750F0881
:0C0D2800120BE90511E511700205102204
:100D3400E4FFFEEF25E02412F874FFF608F6EF2531
:100D4400E0242EF874FFF608F60FBF00010EEF64DE
:040D54000F4E70DFEF
:010D58002278
:100C9300E4F54AF54BAF4BEF25E02412F8E6FC08E8
:100CA300E6B55520E554B5041BEF25E0242EF8E600
:100CB300FE08E6B5570EE556B50609751000751121
:100CC30001120D34054BE54B7002054AC3940CE544
:080CD3004A6480948040BE22B7
:100A8F00E54C707BE54D24F9604124FB602424FD87
:100A9F00605224057069E555155570021554D3E55C
:100AAF005594FFE5546480947F50547554007555E8
:100ABF0007220555E55570020554C39408E55464A3
:100ACF00809480403AE4F554F555220557E5577068
:100ADF00020556C39408E556648094804021E4F5DE
:100AEF0056F55722E557155770021556D3E557940B
:100AFF00FFE5566480947F500675560075570722A0
:10000E00E510600302047AE51114B40E00400302F9
:10001E00047A90002E75F003A4C58325F0C5837372
:10002E0002005802005A0200690200BF02011502C6
:10003E00016B0201C102021702026D0202C302032A
:10004E001902036F0203C502041A80628512148519
:10005E001315852E30852F3102046D755800755994
:10006E0002E5592401F55BE43558F55AAF59EF25F1
:10007E00E02412F8E6FC08E6FDAE5BEE25E0241265
:10008E00F8A60408A605EF25E0242EF8E6FC08E6FF
:10009E00FDEE25E0242EF8A60408A605E55915590F
:1000AE0070021558E559B4FFB8E558B4FFB3020411
:1000BE006D755800755903E5592401F55BE4355803
:1000CE00F55AAF59EF25E02412F8E6FC08E6FDAE2E
:1000DE005BEE25E02412F8A60408A605EF25E02421
:1000EE002EF8E6FC08E6FDEE25E0242EF8A6040820
:1000FE00A605E559155970021558E559B4FFB8E52E
:10010E0058B4FFB302046D755800755904E55924AF
:10011E0001F55BE43558F55AAF59EF25E02412F896
:10012E00E6FC08E6FDAE5BEE25E02412F8A6040818
:10013E00A605EF25E0242EF8E6FC08E6FDEE25E008
:10014E00242EF8A60408A605E5591559700215586F
:10015E00E559B4FFB8E558B4FFB302046D75580005
:10016E00755905E5592401F55BE43558F55AAF5933
:10017E00EF25E02412F8E6FC08E6FDAE5BEE25E086
:10018E002412F8A60408A605EF25E0242EF8E6FCB6
:10019E0008E6FDEE25E0242EF8A60408A605E5598E
:1001AE00155970021558E559B4FFB8E558B4FFB3A8
:1001BE0002046D755800755906E5592401F55BE486
:1001CE003558F55AAF59EF25E02412F8E6FC08E64B
:1001DE00FDAE5BEE25E02412F8A60408A605EF2579
:1001EE00E0242EF8E6FC08E6FDEE25E0242EF8A627
:1001FE000408A605E559155970021558E559B4FFBE
:10020E00B8E558B4FFB302046D755800755907E58B
:10021E00592401F55BE43558F55AAF59EF25E02422
:10022E0012F8E6FC08E6FDAE5BEE25E02412F8A619
:10023E000408A605EF25E0242EF8E6FC08E6FDEE00
:10024E0025E0242EF8A60408A605E55915597002D6
:10025E001558E559B4FFB8E558B4FFB302046D75EF
:10026E005800755908E5592401F55BE43558F55ADF
:10027E00AF59EF25E02412F8E6FC08E6FDAE5BEE82
:10028E0025E02412F8A60408A605EF25E0242EF892
:10029E00E6FC08E6FDEE25E0242EF8A60408A605E9
:1002AE00E559155970021558E559B4FFB8E558B41B
:1002BE00FFB302046D755800755909E5592401F50F
:1002CE005BE43558F55AAF59EF25E02412F8E6FCF9
:1002DE0008E6FDAE5BEE25E02412F8A60408A6059E
:1002EE00EF25E0242EF8E6FC08E6FDEE25E0242EB0
:1002FE00F8A60408A605E559155970021558E559D2
:10030E00B4FFB8E558B4FFB302046D7558007559C3
:10031E000AE5592401F55BE43558F55AAF59EF2536
:10032E00E02412F8E6FC08E6FDAE5BEE25E02412B2
:10033E00F8A60408A605EF25E0242EF8E6FC08E64C
:10034E00FDEE25E0242EF8A60408A605E55915595C
:10035E0070021558E559B4FFB8E558B4FFB302045E
:10036E006D75580075590BE5592401F55BE4355848
:10037E00F55AAF59EF25E02412F8E6FC08E6FDAE7B
:10038E005BEE25E02412F8A60408A605EF25E0246E
:10039E002EF8E6FC08E6FDEE25E0242EF8A604086D
:1003AE00A605E559155970021558E559B4FFB8E57B
:1003BE0058B4FFB302046D75580075590CE55924F5
:1003CE0001F55BE43558F55AAF59EF25E02412F8E4
:1003DE00E6FC08E6FDAE5BEE25E02412F8A6040866
:1003EE00A605EF25E0242EF8E6FC08E6FDEE25E056
:1003FE00242EF8A60408A605E559155970021558BD
:10040E00E559B4FFB8E558B4FFB38053755800757D
:10041E00590DE5592401F55BE43558F55AAF59EFFE
:10042E0025E02412F8E6FC08E6FDAE5BEE25E0249E
:10043E0012F8A60408A605EF25E0242EF8E6FC081F
:10044E00E6FDEE25E0242EF8A60408A605E55915CE
:10045E005970021558E559B4FFB8E558B4FFB38585
:10046E00541285551385562E85572F2275100075FB
:03047E0011012247
:03000B00020B0FD6
:100B0F00C0E0C0F0C083C082C0D075D000C000C0AC
:0D0B1F0001C002C003C004C005C006C0072D
:100B2C00758A66758CFC0509E50970020508050BCC
:100B3C00E50B7002050AC3E5099464E508940040CE
:100B4C000B7508007509001208338F5CC3E50B9414
:100B5C0090E50A94014011750A00750B00B2A012C1
:080B6C00000E120A8F120C9317
:100B7400D007D006D005D004D003D002D001D000D5
:0B0B8400D0D0D082D083D0F0D0E0327F
:100D9200EF1FAC0670011E4C600B007D027CC7DCAD
:050DA200FEDDFC80EB0A
:010DA7002229
:05000300C2B6C2B522E7
:020CDB00AD0763
:100CDD00E4FB74807E00A803088006CEA2E713CE45
:100CED0013D8F8FFEDF582EF558224FF92B4D2B6FA
:0A0CFD00C2B60BBB08DCD2B5C2B5CD
:010D070022C9
:100D5900AA07AF05120CDBAF027480A8070880024E
:100D6900C313D8FCF4F5807F017E00120D927580C3
:020D7900FF2257
:100B8F008F5DEC704BEDB408005045900BA1F82829
:100B9F002873020BB9020BBE020BC3020BC8020B68
:100BAF00CD020BD2020BD7020BDC755E01802175D3
:100BBF005E02801C755E048017755E088012755E7C
:100BCF0010800D755E208008755E408003755E8015
:0A0BDF00E55EFD7C00AF5D020D59DC
:100D7B005389F0438901758A66758CFCC28DD28CC0
:070D8B00D2A9D2AFC2B922C8
:10083300E4F55F7590FFC2932097137F14FE120DAA
:10084300923097FD7F147E00120D92755F01209602
:10085300147F147E00120D923096FD7F147E0012D9
:100863000D92755F052095147F147E00120D923052
:1008730095FD7F147E00120D92755F092094147FFD
:10088300147E00120D923094FD7F147E00120D929F
:10089300755F0D7590FFC2922097147F147E00122E
:1008A3000D923097FD7F147E00120D92755F02202A
:1008B30096147F147E00120D923096FD7F147E00F5
:1008C300120D92755F06209503755F0A2094147FBD
:1008D300147E00120D923094FD7F147E00120D924F
:1008E300755F0E7590FFC2912097147F147E0012DE
:1008F3000D923097FD7F147E00120D92755F0320D9
:100903009603755F072095147F147E00120D9230B5
:1009130095FD7F147E00120D92755F0B2094037575
:100923005F0F7590FFC2902097147F147E00120D05
:10093300923097FD7F147E00120D92755F0420960E
:10094300147F147E00120D923096FD7F147E0012E8
:100953000D92755F08209503755F0C2094147F1426
:100963007E00120D923094FD7F147E00120D92755D
:040973005F10AF5F03
:01097700225D
:030000000209787A
:0C097800787FE4F6D8FD75815F0209BFAE
:100A0400C2D5EC30E709B2D5E4C39DFDE49CFCEE0D
:100A140030E715B2D5E4C39FFFE49EFE120A3AC341
:100A2400E49DFDE49CFC8003120A3A30D507C3E43C
:060A34009FFFE49EFE227C
:10098400020481E493A3F8E493A34003F68001F204
:1009940008DFF48029E493A3F85407240CC8C33374
:1009A400C4540F4420C8834004F456800146F6DF43
:1009B400E4800B0102040810204080900C40E47E87
:1009C400019360BCA3FF543F30E509541FFEE49338
:1009D400A360010ECF54C025E060A840B8E493A3FF
:1009E400FAE493A3F8E493A3C8C582C8CAC583CA2A
:1009F400F0A3C8C582C8CAC583CADFE9DEE780BEE2
:010C92000061
:100A3A00BC000BBE0029EF8DF084FFADF022E4CCA0
:100A4A00F875F008EF2FFFEE33FEEC33FCEE9DEC69
:100A5A00984005FCEE9DFE0FD5F0E9E4CEFD22EDAF
:100A6A00F8F5F0EE8420D21CFEADF075F008EF2FF9
:100A7A00FFED33FD4007985006D5F0F222C398FDEA
:050A8A000FD5F0EA2287
:00000001FF
