:050003002D002020008B
:10066100120A0F120A4F1209CC1203197BFF7A00EA
:1006710079037D037F0112096E7BFF7A0079037D87
:10068100067F0112096E7BFF7A0079037D037F02E9
:1006910012096E7BFF7A0079037D067F0212096ED3
:1006A1001207A88F1DE51DB40114E51AB40108E471
:1006B100F51A1203198007E51A7003751A01E51A74
:1006C1001460080470DA12073F80D512000E80D042
:10073F00120548E51EFB3395E0FA750C027D017F2B
:10074F00011209AFE51FFB3395E0FA750C027D042A
:10075F007F011209AFE520FB3395E0FA750C027D9E
:10076F00077F011209AFE521FB3395E0FA750C0203
:10077F007D017F021209AFE522FB3395E0FA750C7C
:10078F00027D047F021209AFE523FB3395E0FA7572
:09079F000C027D077F020209AF84
:10000E00E51DB4020B051BE51B75F0068485F01B80
:10001E00E51D640360030200E8741E251BF806D379
:10002E00E51E648094E34003E4F51ED3E51F64806F
:10003E00948C4003751F01E51F64016023E51F6466
:10004E0003601DE51F64056017E51F64076011E579
:10005E001F6408600BE51F640A6005E51FB40C0BF6
:10006E00D3E5206480949F404D8048E51F64046072
:10007E0011E51F6406600BE51F64096005E51FB4FA
:10008E000B0BD3E5206480949E402B8026E51FB495
:10009E000224E51E75F004120492AFF0EF700BD33C
:1000AE00E5206480949D400E8009D3E52064809401
:1000BE009C4003752001D3E521648094974003E4AE
:1000CE00F521D3E522648094BB4003E4F522D3E509
:1000DE0023648094BB4003E4F523E51D64046003B0
:1000EE0002021F741E251BF816C3E51E6480948041
:1000FE005003751E63D3E51E648094E34003E4F55C
:10010E001EC3E51F648094815003751F0CD3E51F39
:10011E006480948C4003751F01E51F64016023E524
:10012E001F6403601DE51F64056017E51F6407600B
:10013E0011E51F6408600BE51F640A6005E51FB436
:10014E000C17C3E52064809481500375201FD3E5FE
:10015E00206480949F4072806DE51F64046011E5F9
:10016E001F6406600BE51F64096005E51FB40B17DD
:10017E00C3E52064809481500375201ED3E520646E
:10018E0080949E4044803FE51F6402703CE51E75DE
:10019E00F004120492AFF0EF7017C3E52064809460
:1001AE0081500375201DD3E5206480949D401A80F4
:1001BE0015C3E52064809481500375201CD3E5207F
:1001CE006480949C4003752001C3E5216480948073
:1001DE005003752117D3E521648094974003E4F50D
:1001EE0021C3E52264809480500375223BD3E5221F
:1001FE00648094BB4003E4F522C3E52364809480BD
:10020E00500375233BD3E523648094BB4003E4F590
:10021E0023E51B7014E51CB4010F7BFF7A007905F2
:10022E007D017F0112096E8011E51EFB3395E0FA08
:10023E00750C027D017F011209AFE51BB40114E5B7
:10024E001CB4010F7BFF7A0079057D047F01120932
:10025E006E8011E51FFB3395E0FA750C027D047F6D
:10026E00011209AFE51BB40214E51CB4010F7BFFAC
:10027E007A0079057D077F0112096E8011E520FB5A
:10028E003395E0FA750C027D077F011209AFE51B6D
:10029E00B40314E51CB4010F7BFF7A0079057D01D0
:1002AE007F0212096E8011E521FB3395E0FA750C81
:1002BE00027D017F021209AFE51BB40414E51CB4E4
:1002CE00010F7BFF7A0079057D047F0212096E8093
:1002DE0011E522FB3395E0FA750C027D047F0212C4
:1002EE0009AFE51BB40512E51CB4010D7BFF7A00C6
:1002FE0079057D077F0202096EE523FB3395E0FA4F
:0B030E00750C027D077F021209AF2270
:03000B0002089157
:09089100C0E0C0D075D000C00722
:10089A00758A66758CFC0519E51970020518C394EA
:1008AA00F4E51894014012751800751900E51C70DA
:0908BA00047F0180027F008F1C05
:0708C300D007D0D0D0E032D5
:060A2300C2A58F80D2A7DE
:080A29007F027EEFDEFEDFFC20
:010A310022A2
:0A0A3200C2A6120A23C2A7020A2975
:10099100CFCDCFCECCCE1204F37C007D0A1204F36E
:0409A100ED2430FF12
:0A09A500D2A6120A23C2A7020A29F3
:1009E300AE07BE0104ED148006BE0209ED243F44A8
:0609F30080FF120A32220F
:100A0F007F38120A327F0C120A327F06120A327FA7
:040A1F0001020A3294
:0A0A3C00AC031209E3AF040209A5A0
:06096E008B088A09890ACA
:100974001209E3E4FDAB08AA09A90A8D8275830074
:0C0984001204B4FF60061209A50D80E902
:010990002244
:0C093B007F0AEA24FFFDE434FFFC7E008C
:080947008E0D8F0E8C0F8D1038
:10094F007F017E00E4FBEBC39510E50F6480F87424
:0E095F008098500AAC0DAD0E1204E10B80E83A
:01096D002267
:0409AF008A0A8B0B1A
:1009B3001209E3AA0CEAD39400400D12093BAC0AD6
:0809C300AD0B1209911A80ED41
:0109CB002209
:100857001209E3C3EA64809480400B7F2B1209A539
:100867008A168B17800E7F2D1209A5C3E49BF517F7
:10087700E49AF516AA15EAD39400400D12093BAC89
:0908870016AD171209911A80ED5B
:010890002245
:0408CA008A268B27C8
:1008CE001209E3AA28EAD3940040297F1012093DA9
:1008DE00AC26AD27CFCDCFCECCCE1204F3EF540F36
:1008EE00FEC3940AEE5004243080022437FF12090E
:0408FE00A51A80D1E6
:0109020022D2
:040903008A2B8B2C84
:100907001209E3AA2DEAD394004028EA24FFFDE464
:1009170034FFFC7F027E00120947AC2BAD2CCFCDF4
:10092700CFCECCCE1204F3EF54012430FF1209A529
:030937001A80D251
:01093A00229A
:080A4600061E160904151F012C
:050A4F00C2B5C2B62291
:0506D1002DFDEE3CFCD4
:0606D6008C088D09A90744
:1006DC00D2B5E4FBFAAF0374017E00A807088005CD
:1006EC00C333CE33CED8F9FFE9FDEF5D24FF92B4CE
:1006FC00D2B6C2B60BBB00010AEB64084A70D6E452
:10070C00FAFBAF0374017E00A807088005C333CE43
:10071C0033CED8F9FFE5085EFEE5095F4E24FF9263
:10072C00B4D2B6C2B60BBB00010AEB64084A70D255
:02073C00C2B544
:01073E002298
:02080900AD0739
:10080B00E4F9430501D2B5FB74017E00A80308800F
:10081B0005C333CE33CED8F9FFEDF582EF558224E5
:10082B00FF92B4C2B6D2B60BBB08DDE4FBD2B6C2A4
:10083B00B630B40D7401A803088002C333D8FC4250
:0B084B00010BBB08E8C2B5C2B4AF014E
:01085600227F
:10031900E4FDFC7F8E1206D6E51E75F00A120492E2
:10032900FF3395E0FEEFC4F8540FC868FFEEC454DC
:10033900F048FEE51E75F00A120492ADF0ED339512
:10034900E0FCEF7F8C1206D1E51F75F00A120492CA
:10035900FF3395E0FEEFC4F8540FC868FFEEC454AC
:10036900F048FEE51F75F00A120492ADF0ED3395E1
:10037900E0FCEF7F881206D1E52075F00A1204929D
:10038900FF3395E0FEEFC4F8540FC868FFEEC4547C
:10039900F048FEE52075F00A120492ADF0ED3395B0
:1003A900E0FCEF2DFDEE3CFC7F861206D6E52175BB
:1003B900F00A120492FF3395E0FEEFC4F8540FC817
:1003C90068FFEEC454F048FEE52175F00A12049264
:1003D900ADF0ED3395E0FCEF2DFDEE3CFC7F841292
:1003E90006D6E52275F00A120492FF3395E0FEEF76
:1003F900C4F8540FC868FFEEC454F048FEE52275EE
:10040900F00A120492ADF0ED3395E0FCEF2DFDEE0C
:100419003CFC7F821206D6E52375F00A120492FF8E
:100429003395E0FEEFC4F8540FC868FFEEC454F0EA
:1004390048FEE52375F00A120492ADF0ED3395E01C
:10044900FCEF2DFDEE3CFC7F801206D6E52475F00D
:100459000A120492FF3395E0FEEFC4F8540FC868FE
:10046900FFEEC454F048FEE52475F00A120492AD7B
:10047900F0ED3395E0FCEF2DFDEE3CFC7F8A120692
:09048900D6E4FDFC7F8E0206D6CC
:100548007F8C120809EFC4540F75F00AA4FEEF540B
:100558000F2EF51E7F88120809EFC4540F75F00A94
:10056800A4FEEF540F2EF51F7F86120809EFC4541E
:100578000F75F00AA4FEEF540F2EF5207F841208A1
:1005880009EFC4540F75F00AA4FEEF540F2EF5219D
:100598007F82120809EFC4540F75F00AA4FEEF54C5
:1005A8000F2EF5227F80120809EFC4540F75F00A48
:1005B800A4FEEF540F2EF5237F8A120809EFC454C6
:0C05C8000F75F00AA4FEEF540F2EF5246E
:0105D4002204
:1007A800E4F50820B1137F14FE1209F930B1FD7F7A
:1007B800147E001209F975080120B0147F147E0018
:1007C8001209F930B0FD7F147E001209F97508028C
:1007D80020B2147F147E001209F930B2FD7F147E16
:1007E800001209F975080320B3147F147E0012095A
:1007F800F930B3FD7F147E001209F9750804AF08BB
:0108080022CD
:1009F900EF1FAC0670011E4C600B007D027CC7DC4A
:050A0900FEDDFC80EBA6
:010A0E0022C5
:1009CC005389F0438901758A66758CFCC28DD28C73
:0709DC00D2A9D2AFC2B9227B
:030000000205D521
:0C05D500787FE4F6D8FD75812D02061C2D
:10049200C2D530F707B2D563F0FF05F030E70CB2F2
:1004A200D5F4048463F0FF05F080018430D502F4B2
:0204B200042222
:1004B400BB010CE58229F582E5833AF583E02250FD
:1004C40006E92582F8E622BBFE06E92582F8E22247
:0D04D400E58229F582E5833AF583E4932261
:1004E100EF8DF0A4A8F0CF8CF0A428CE8DF0A42E2F
:0204F100FE22E9
:1004F300BC000BBE0029EF8DF084FFADF022E4CCED
:10050300F875F008EF2FFFEE33FEEC33FCEE9DECB5
:10051300984005FCEE9DFE0FD5F0E9E4CEFD22EDFB
:10052300F8F5F0EE8420D21CFEADF075F008EF2F45
:10053300FFED33FD4007985006D5F0F222C398FD36
:050543000FD5F0EA22D3
:1005E100020661E493A3F8E493A34003F68001F2C9
:1005F10008DFF48029E493A3F85407240CC8C3331B
:10060100C4540F4420C8834004F456800146F6DFE9
:10061100E4800B0102040810204080900A46E47E29
:10062100019360BCA3FF543F30E509541FFEE493DE
:10063100A360010ECF54C025E060A840B8E493A3A5
:10064100FAE493A3F8E493A3C8C582C8CAC583CAD0
:10065100F0A3C8C582C8CAC583CADFE9DEE780BE88
:010A4E0000A7
:00000001FF
